:020000040800F2
:10000000D01600206502000809170008EF14000848
:1000100005170008CF030008B11800080000000011
:10002000000000000000000000000000CD010008FA
:10003000D303000800000000110200084117000867
:100040007F0200087F0200087F0200087F0200088C
:100050007F0200087F0200087F0200087F0200087C
:100060007F0200087F0200087F0200087F0200086C
:100070007F0200087F0200087F0200087F0200085C
:100080007F0200087F0200087F0200087F0200084C
:100090007F0200087F0200087F0200087F0200083C
:1000A0007F020008DD1700087F0200087F020008B9
:1000B0007F0200087F0200087F0200087F0200081C
:1000C0007F0200087F0200087F0200087F0200080C
:1000D0007F0200087F0200087F0200087F020008FC
:1000E0007F0200087F0200087F0200087F020008EC
:1000F0007F0200087F0200087F0200087F020008DC
:100100007F0200087F0200087F0200087F020008CB
:100110007F0200087F0200087F0200087F020008BB
:100120007F0200087F0200087F0200087F020008AB
:1001300000F002F800F03AF80AA090E8000C8244BF
:100140008344AAF10107DA4501D100F02FF8AFF29C
:10015000090EBAE80F0013F0010F18BFFB1A43F0A5
:1001600001031847E826000008270000103A24BFC2
:1001700078C878C1FAD8520724BF30C830C144BF0C
:1001800004680C607047000000230024002500264E
:10019000103A28BF78C1FBD8520728BF30C148BFEA
:1001A0000B6070471FB51FBD10B510BD00F0D6F82D
:1001B0001146FFF7F7FF01F0B1FB00F0F4F803B4CC
:1001C000FFF7F2FF03BC00F0FBF80000224B1968B8
:1001D0000868B0E8F00F80F30988BFF36F8F4FF025
:1001E000000080F311884EF00D0E704700000000F3
:1001F00006480068006880F3088862B661B6BFF3FD
:100200004F8FBFF36F8F00DF00BF00BF08ED00E02E
:10021000EFF30980BFF36F8F0F4B1A6820E9F00FDF
:10022000106008B54FF0500080F31188BFF34F8F76
:10023000BFF36F8F02F056F84FF0000080F3118883
:10024000BDE8084019680868B0E8F00F80F3098835
:10025000BFF36F8F704700BF28000020EFF30580C9
:10026000704700000948804709480047FEE7FEE75D
:10027000FEE7FEE7FEE7FEE7FEE7FEE7FEE7FEE756
:1002800004480549054A064B70470000DB17000883
:1002900031010008D0100020D0160020D01200201C
:1002A000D012002010B5203AC0F00B80B1E81850F1
:1002B000203AA0E81850B1E81850A0E81850BFF450
:1002C000F5AF5FEA027C24BFB1E81850A0E81850EF
:1002D00044BF18C918C0BDE810405FEA827C24BF43
:1002E00051F8043B40F8043B08BF7047D20728BFD1
:1002F00031F8023B48BF11F8012B28BF20F8023B20
:1003000048BF00F8012B70474FF0000200B51346BC
:1003100094469646203922BFA0E80C50A0E80C5025
:10032000B1F12001BFF4F7AF090728BFA0E80C50D6
:1003300048BF0CC05DF804EB890028BF40F8042BCF
:1003400008BF704748BF20F8022B11F0804F18BF3C
:1003500000F8012B7047704770477047754600F0F2
:100360002BF8AE4605006946534620F00700854647
:1003700018B020B5FFF784FFBDE820404FF000061D
:100380004FF000074FF000084FF0000B21F007017D
:10039000AC46ACE8C009ACE8C009ACE8C009ACE8C0
:1003A000C0098D46704710B50446AFF30080204663
:1003B000BDE81040FFF703BF004870476C100020F5
:1003C00001491820ABBEFEE726000200704700BFBF
:1003D000FEE7704772B600BFFEE7000070B5044646
:1003E000B3F5804F13D1D1E9000540EA05108D68BF
:1003F00040EA05208D6928438D8940EA054054F87C
:100400002250064E3540284344F8220003E06FF0A6
:10041000704044F82200002070BD00000000F0CFC2
:1004200070B50246086852F8200020F001000E68FE
:1004300042F826008868082801D1402300E0002304
:10044000486818438E683043CE6830430E693043A5
:100450004E693043CE6930430E6A30434E6A3043B2
:100460008E6A3043CE6A30430E6B40EA06048869D8
:100470000443486B0443074D45F4806545F4E0258B
:10048000086852F82000A84320430E6842F826006E
:10049000002070BD7FFB080010B50346D1E90004C1
:1004A00040EA04108C6840EA04208C8940EA044445
:1004B000088A401E44EA0054087D801E44EA006019
:1004C0008C692043541C43F82400002010BD10B553
:1004D00004460CB9012010BD607920B900202071BC
:1004E000204600F005F8012060710020F3E70000CD
:1004F00008B5094A016891420DD100BF0749496911
:1005000041F04001054A51611146496901F040013D
:10051000009100BF00BF08BD003002400010024043
:1005200000B585B0002001900290039004901C4813
:10053000006808B105B000BD01201949086000BF7E
:100540001848406940F4807016494861084640697F
:1005500000F48070009000BF00BF41F201000190E4
:10056000022002900320049001A90F4800F022F815
:100570004FF680700190022002900320049001A9A0
:100580000A4800F017F84CF23370019002200290F4
:100590000320049001A9064800F00CF800BFC9E749
:1005A000100000200010024000200140001801400F
:1005B000001401402DE9F847024600239C467BE1E8
:1005C0004FF0010808FA03F4D1F8008008EA0400AB
:1005D000A0427DD1DFF8F4A2D1F80480A8EB0A098B
:1005E000D0453AD014DCB8F1030F50D009DCB8F193
:1005F000000F31D0B8F1010F1CD0B8F1020F49D172
:1006000020E0B8F1110F18D0B8F1120F42D11EE05E
:10061000B9F5881F25D006DCB9F5803F20D0B9F5A3
:10062000801F37D11AE0B9F5001F18D0B9F5041FA3
:1006300030D117E0D1F80CC02DE0D1F80C8008F1D2
:10064000040C28E0D1F80C8008F1080C23E0D1F864
:100650000C8008F10C0C1EE000BF00BF00BF00BF03
:1006600000BF00BFD1F80880B8F1000F02D14FF0F1
:10067000040C0BE0D1F80880B8F1010F03D14FF062
:10068000080C146102E04FF0080C546103E04FF0D5
:10069000000C00E000BF00BFFF2801D8904601E039
:1006A00002F104084646FF2802D84FEA830803E017
:1006B000A3F108084FEA88084746D6F800804FF0B3
:1006C0000F0909FA07F928EA09080CFA07F900E006
:1006D0007AE048EA0908C6F80080D1F8048008F0FA
:1006E0008058B8F1805F6FD100BFDFF8E481D8F89F
:1006F000188048F00108DFF8D891C9F81880C8467A
:10070000D8F8188008F00108CDF8008000BF00BFBD
:100710004FEAB9384FEA930958F829504FEA8378DD
:100720004FEA18794FF00F0808FA09F825EA08058A
:10073000DFF8A081424502D14FF0000824E0DFF845
:100740009881424502D14FF001081DE0DFF88C810D
:10075000424502D14FF0020816E0DFF8848142459D
:1007600002D14FF003080FE0DFF87881424502D153
:100770004FF0040808E0DFF87081424502D14FF0E5
:10078000050801E04FF006084FEA83794FEA19792E
:1007900008FA09F848EA0505DFF850814FEA93099D
:1007A00048F82950D1F8048008F48018B8F5801F63
:1007B0000BD1DFF83C81D8F8008048EA0008DFF868
:1007C0003091C9F800800AE075E0DFF82481D8F89C
:1007D000008028EA0008DFF81891C9F80080D1F8F5
:1007E000048008F40018B8F5001F0ED1DFF800816E
:1007F00008F10408D8F8008048EA0008DFF8F09013
:1008000009F10409C9F800800DE0DFF8E48008F17F
:100810000408D8F8008028EA0008DFF8D49009F12D
:100820000409C9F80080D1F8048008F40038B8F54C
:10083000003F0ED1DFF8B880A8F10408D8F8008096
:1008400048EA0008DFF8A890A9F10409C9F8008077
:100850000DE0DFF89C80A8F10408D8F8008028EAB1
:100860000008DFF88C90A9F10409C9F80080D1F8DC
:10087000048008F48038B8F5803F0ED1DFF870802E
:10088000A8F10808D8F8008048EA0008DFF860906E
:10089000A9F10809C9F800800DE0DFF85480A8F13B
:1008A0000808D8F8008028EA0008DFF84490A9F189
:1008B0000809C9F800805B1CD1F8008028FA03F809
:1008C000B8F1000F7FF47CAEBDE8F887000011108E
:1008D0000010024000080140000C014000100140DF
:1008E0000014014000180140001C014008000140B4
:1008F0000804014010B5C26821EA020302EA0104BB
:1009000043EA0443036110BD0AB1016101E00B0435
:10091000036170470148006870470000180000201C
:100920000348006803490978084401490860704792
:10093000180000202000002010B50848006840F092
:10094000100006490860032000F0D8F80F2000F0DE
:1009500007F800F055F8002010BD0000002002400C
:10096000F0B587B0044600260027002500BF1F48C9
:10097000806940F400601D4988610846806900F480
:100980000060009000BF00BF01A902A800F090F92C
:1009900000F0B6F906461648B6FBF0F0471E1548BB
:1009A0001549086040F2E7311348C16047600021F3
:1009B00001618160816100F057FC054695B90E48E0
:1009C00000F086FC05466DB9192000F049F8102C9E
:1009D00007D200222146192000F052F8074804608F
:1009E00000E00125284607B0F0BD000000100240DD
:1009F00040420F00002C0140340300201C00002066
:100A000008B500BF1448806940F0010012498861B0
:100A10000846806900F00100009000BF00BF00BFE1
:100A20000846C06940F08050C8610846C06900F0BF
:100A30008050009000BF00BF00220F21901E00F0E8
:100A40001FF800BF0549486820F0E06040F00070E2
:100A5000486000BF08BD00000010024000000140D7
:100A600001460846002809DB00F01F0301229A40D6
:100A700043099B0003F1E023C3F8002100BF704746
:100A80002DE9F05F80460D461646002700F012FF64
:100A9000074639462A46334601F00700C0F1070AE7
:100AA000BAF1040F02D94FF0040A01E0C0F1070ABD
:100AB000D14600F1040ABAF1070F02D24FF0000A42
:100AC00001E0A0F1030AD4464FF0010A0AFA09FA3C
:100AD000AAF1010A0AEA020A0AFA0CFA4FF0010B1B
:100AE0000BFA0CFBABF1010B0BEA030B4AEA0B040C
:100AF0002146404600F0E6FEBDE8F09F00BF00F052
:100B00000702064B19684FF6FF031940044B0B43CD
:100B100043EA0221014B196000BF70470CED00E071
:100B20000000FA0570B504460D460CB9012070BDF1
:100B30005A48006800F00700A8420ED257480068E3
:100B400020F007002843554908600846006800F077
:100B50000700A84201D00120E9E7207800F0020058
:100B600002281DD1207800F00400042805D14C484B
:100B7000406840F4E0604A494860207800F008008E
:100B8000082805D14648406840F460504449486010
:100B90004348406820F0F000A1680843404948609D
:100BA000207800F0010078B36068012806D13C4845
:100BB000006800F4003090B90120B8E760680228AE
:100BC00006D13748006800F0007040B90120AEE758
:100BD0003348006800F0020008B90120A7E7304858
:100BE000406820F00300616808432D494860FFF722
:100BF00091FE064609E0FFF78DFE801B41F2883129
:100C0000884202D9032092E707E02548406800F0B7
:100C10000C006168B0EB810FEDD12048006800F056
:100C20000700A8420ED91D48006820F0070028439D
:100C30001A4908600846006800F00700A84201D081
:100C4000012074E7207800F00400042807D114483C
:100C5000406820F4E060E16808431149486020786A
:100C600000F00800082808D10D48406820F46050C2
:100C7000216940EAC1000A49486000F051F808497A
:100C80004968C1F30311074A515CC840064908602E
:100C900006480068FFF764FE002048E70020024095
:100CA000001002401E280008240000201C00002024
:100CB0000F2202600D4A526802F0030242600B4AA2
:100CC000526802F0F0028260084A526802F4E06260
:100CD000C260064A526802F46052D2080261044AB5
:100CE000126802F007020A6070470000001002401C
:100CF00000200240014800687047000024000020E6
:100D000000B5FFF7F7FF04494968C1F3C221034A60
:100D1000515CC84000BD0000001002402E280008B1
:100D200070B500210022002400230020134D6968C3
:100D300001F00C05F5B1042D02D0082D19D101E008
:100D40000F4819E00F4DC1F38346AB5D01F48035C8
:100D500055B10A4D6D68C5F340450B4E725D084DA7
:100D60005D43B5FBF2F402E0084D03FB05F42046B9
:100D700002E000BF024800BF00BF70BD001002408B
:100D800000127A000C2800081C28000800093D0009
:100D9000F8B504460CB90120F8BD207800F0010038
:100DA000002878D0F848406800F00C0004280CD0E7
:100DB000F548406800F00C00082811D1F24840685E
:100DC00000F48030B0F5803F0AD1EF48006800F4AD
:100DD000003000285FD0606800285CD10120DBE78C
:100DE00000BF6068B0F5803F06D1E748006840F476
:100DF0008030E549086028E0606858B9E24800683A
:100E000020F48030E04908600846006820F4802023
:100E100008601AE06068B0F5A02F0BD1DA480068CE
:100E200040F48020D84908600846006840F48030CB
:100E300008600AE0D448006820F48030D249086095
:100E40000846006820F48020086000BF606888B110
:100E5000FFF760FD054606E0FFF75CFD401B6428D8
:100E600001D9032098E7C848006800F40030002842
:100E7000F2D010E0FFF74EFD054606E0FFF74AFD11
:100E8000401B642801D9032086E7BF48006800F4AE
:100E900000300028F2D1207800F00200022857D15B
:100EA000B948406800F00C0050B1B748406800F005
:100EB0000C00082818D1B448406800F4803098B974
:100EC000B148006800F0020020B12069012801D07B
:100ED000012061E7AC48006820F0F800616940EA51
:100EE000C100A949086033E02069E8B10120A749A1
:100EF0000860FFF70FFD054606E0FFF70BFD401BFE
:100F0000022801D9032047E79F48006800F002004B
:100F10000028F2D09C48006820F0F800616940EA9F
:100F2000C1009949086013E0002098490860FFF764
:100F3000F1FC054606E0FFF7EDFC401B022801D955
:100F4000032029E79048006800F002000028F2D151
:100F5000207800F0080008282DD1A069B8B1012040
:100F60008B490860FFF7D6FC054606E0FFF7D2FC88
:100F7000401B022801D903200EE78348406A00F095
:100F800002000028F2D0012000F0C0FB13E0002096
:100F90007F490860FFF7BEFC054606E0FFF7BAFC94
:100FA000401B022801D90320F6E67748406A00F08A
:100FB00002000028F2D1207800F00400042873D148
:100FC00000277148C06900F0805070B900BF6E48BA
:100FD000C06940F080506C49C8610846C06900F0A3
:100FE0008050009000BF00BF01276A48006800F4ED
:100FF0008070B0B96748006840F480706549086047
:10100000FFF788FC054606E0FFF784FC401B6428D8
:1010100001D90320C0E65F48006800F48070002812
:10102000F2D000BFE068012806D15748006A40F0BE
:1010300001005549086227E0E06858B95248006A43
:1010400020F00100504908620846006A20F00400C0
:10105000086219E0E06805280BD14B48006A40F0AF
:101060000400494908620846006A40F0010008622D
:101070000AE04548006A20F001004349086208463A
:10108000006A20F00400086200BFE068A0B1FFF72A
:1010900041FC054609E0FFF73DFC401B41F2883169
:1010A000884202D9032077E622E03748006A00F040
:1010B00002000028EFD012E0FFF72CFC054608E004
:1010C000FFF728FC401B41F28831884201D90320F8
:1010D00062E62D48006A00F002000028F0D1012FDE
:1010E00005D12948C06920F080502749C86100BF58
:1010F000E069C8B32448406800F00C00082860D0BC
:10110000E069022848D1002020490866FFF702FC68
:10111000054606E0FFF7FEFB401B022801D903202D
:101120003AE61948006800F000700028F2D1206A01
:10113000B0F5803F07D11448406820F40030A16822
:10114000084311494860D4E9080108430E49496839
:1011500021F4741108430C49486001200B490866CA
:10116000FFF7D8FB054607E03DE0FFF7D3FB401B48
:10117000022801D903200FE60348006800F0007040
:101180000028F2D02FE00000001002400000424290
:101190008004424200700040002014490866FFF7B6
:1011A000B9FB054606E0FFF7B5FB401B022801D955
:1011B0000320F1E50E48006800F000700028F2D12D
:1011C00011E0E069012800D1E6E50948466806F427
:1011D0008031206A814204D106F47011606A814234
:1011E00001D00120D8E50020D6E5000000004242F1
:1011F0000010024070B504460E4615461CB1A069A9
:10120000B0F5807F01D1012070BD94F8410028B96C
:10121000002084F84000204600F01FF804F1080187
:101220002068FFF7FDF83146A2682068FFF734F91F
:101230002946236BD4E90102FFF7D0F8A1682068A2
:1012400050F8210040F00100A268216841F8220016
:10125000012084F841000020D6E710B50446FFF7CE
:101260005FF910BD7047704710B504460CB90120F6
:1012700010BD94F83D0028B9002084F83C002046B9
:1012800000F025F8022084F83D00211D206800F0C0
:10129000ADFA012084F8460000BF84F83E00012129
:1012A0003F200155402001554120015500BF00BF9E
:1012B000012084F842004320015544200155452077
:1012C000015500BF012084F83D000020D0E77047A1
:1012D000014691F83D00012801D00120704702200D
:1012E00081F83D000868C06840F001000B68D860D4
:1012F000164B0868984213D0154B086898420FD0D7
:101300000868B0F1804F0BD0124B0868984207D0A4
:10131000114B0868984203D0104B086898420CD1D2
:101320000868806800F00702062A0CD00868006888
:1013300040F001000B68186005E00868006840F0A4
:1013400001000B6818600020C8E70000002C014075
:10135000003401400004004000080040000C004040
:10136000704770B504462068C5682068066906F0B5
:101370000200022819D105F00200022815D1401FF1
:1013800021680861012020772068806900F003004F
:1013900018B12046FFF7E4FF05E0204600F097F87B
:1013A000204600F095F80020207706F0040004287D
:1013B00019D105F00400042815D1C0432168086143
:1013C000022020772068806900F4407018B1204620
:1013D000FFF7C6FF05E0204600F079F8204600F050
:1013E00077F80020207706F00800082819D105F0CA
:1013F0000800082815D1C04321680861042020771F
:101400002068C06900F0030018B12046FFF7A8FF6C
:1014100005E0204600F05BF8204600F059F8002077
:10142000207706F01000102819D105F010001028C0
:1014300015D1C04321680861082020772068C06961
:1014400000F4407018B12046FFF78AFF05E02046FF
:1014500000F03DF8204600F03BF80020207706F031
:10146000010048B105F0010030B16FF001002168C2
:101470000861204600F02EF806F08000802809D18F
:1014800005F08000802805D1C0432168086120460E
:10149000FFF7E8FE06F04000402809D105F04000C3
:1014A000402805D1C04321680861204600F01EF89D
:1014B00006F02000202809D105F02000202805D1C1
:1014C000C043216808612046FFF7CDFE70BD70471C
:1014D0007047000010B5044603492068884201D1D6
:1014E000FFF71EFA10BD0000002C0140704700BF3E
:1014F000FEE7000010B50548054908600846FEF7FC
:10150000E6FF08B1FEF766FF10BD000000300240A4
:101510000800002000B58FB01C220C4908A8FEF777
:10152000C1FE002108A800F023FA094908601C2226
:1015300006491C3101A8FEF7B5FE002101A800F004
:1015400017FA044908600FB000BD0000D427000856
:10155000000000200400002000B58FB01C2108A866
:10156000FEF7D2FE1C2101A8FEF7CEFE4FF0204070
:1015700023490860234848600620886000212048ED
:10158000C16001611021416100218161C16101627D
:1015900041624FF4805181620021C1624FF4804169
:1015A0000163002141638163012008900F200990AD
:1015B0000B200A9000200B9010200C9011200D9011
:1015C00000200E9001900F20029001200390002037
:1015D000049010200590112006900020079001AA89
:1015E00008A90748FFF706FE08B1FEF7F3FE064814
:1015F000C06940F480600449C8610FB000BD0000BC
:10160000EC020020040100A00000014000B585B0FC
:101610000020019002900390049000BF3748806939
:1016200040F01000354988610846806900F01000DC
:10163000009000BF00BF00BF0846806940F008006E
:1016400088610846806900F00800009000BF00BF74
:1016500000BF0846806940F4807088610846806950
:1016600000F48070009000BF00BF00BF0846806992
:1016700040F0400088610846806900F0400000901A
:1016800000BF00BF00BF0846806940F020008861AD
:101690000846806900F02000009000BF00BF00BF36
:1016A0000846806940F0040088610846806900F0BF
:1016B0000400009000BF00BF012211461048FFF750
:1016C00023F9002220210E48FFF71EF90120019086
:1016D0000290002003900220049001A90848FEF720
:1016E00069FF2020019001200290039002200490C5
:1016F00001A90348FEF75EFF05B000BD00100240DF
:10170000000C014000BFFEE700BFFEE708B5084936
:101710000968C9084FF47A72B1FBF2F141430091B4
:1017200000BF00BF00994A1E00920029F9D108BDF0
:101730002400002000BF4FF4FA7000F008F9FAE727
:1017400010B500BF502080F31188BFF34F8FBFF357
:101750006F8F00BF00F018FF18B14FF080500449A0
:10176000086000BF002080F3118800BF10BD00009A
:1017700004ED00E000B58FB0282105A8FEF7C4FDF8
:1017800014216846FEF7C0FD012005900004069074
:10179000002007900120099002200C90C1030D91B8
:1017A0004FF4E0110E9105A8FFF7F2FA08B1FEF729
:1017B00011FE0F20009002200190002002904FF4B3
:1017C000806003900020049002216846FFF7AAF988
:1017D00008B1FEF7FFFD0FB000BD704710B502481D
:1017E000FFF7BFFD10BD00003403002010B50268F4
:1017F000244B98420ED0244B98420BD0B0F1804F2E
:1018000008D0224B984205D0214B984202D0214B60
:10181000984203D122F070024B681A43194B984248
:101820000ED0194B98420BD0B0F1804F08D0174B17
:10183000984205D0164B984202D0164B984203D1DD
:1018400022F44072CB681A4322F080034C6943EAC9
:10185000040202608B68C3620B688362094B984282
:1018600002D0094B984201D10B6903630123436104
:10187000036903F001031BB1036923F00103036152
:1018800010BD0000002C0140003401400004004065
:1018900000080040000C004000BF4FF4FA7000F058
:1018A00056F820210148FFF725F8F6E7000C014023
:1018B00000BFFEE702480068C0F302207047000046
:1018C0000CED00E010B5002804DB0A07130E054AF2
:1018D000135406E00A07140E034A00F00F031B1FFF
:1018E000D45410BD00E400E018ED00E007480068A3
:1018F0000749B0FBF1F007490860044800684FF45D
:101900007A71B0FBF1F004490860704724000020B0
:1019100040420F009000002094000020FFF70CF8D8
:10192000FFF728FFFFF772FEFFF7E4FDFFF714FE55
:10193000FFF7DCFFFFF7EEFD00F015F800BFFEE754
:1019400001460020842901D0CA1C1044704770B59C
:10195000044625460DB1294600E00121084600F065
:1019600033FC002070BD10B500F05CFC002010BD01
:101970007FB504460D46606998B1A06988B1B4F995
:101980000800FFF7DDFF0646D4E90510CDE9006148
:1019900002902B462269D4E9001000F097FD0390D5
:1019A00013E0B4F90800FFF7CBFF064603A8CDE922
:1019B0000060238A9AB22B46D4E9001000F054FD4F
:1019C000012802D0002004B070BD0398FBE700009E
:1019D0002DE9F04105460E461C4807681C48006882
:1019E000001D00F0EDFA50B91948006890F82C106D
:1019F0000120884017490968814316480160681C26
:101A000038B936B112480168091D134800F022FBAD
:101A10001AE07C190E4800684460BC4207D20C48AA
:101A20000168091D0D48006800F0FAFA0CE008484A
:101A30000168091D0A48006800F0F2FA09480068C8
:101A4000844201D207480460BDE8F0813C000020D8
:101A50002800002040000020580400203000002012
:101A60002C0000205800002010B5044600F0FEFABB
:101A700023480068401C224908602248006840B999
:101A8000204804600846006801280DD100F03EF9A6
:101A90000AE01D48006838B91A480068C06AE16A5F
:101AA000884201D81748046018480068401C17494C
:101AB000086094F82C1001208840154909680843F3
:101AC00013490860E16A01EB8101124A02EB8100CF
:101AD000211D00F0BFFA00F0F3FA0B48006868B16E
:101AE00008480068C06AE16A884207D24FF0805017
:101AF00009490860BFF34F8FBFF36F8F10BD00001F
:101B0000380000202800002044000020540000205D
:101B1000400000207C03002004ED00E010B516E03A
:101B200000F0A4FA0C48C068C468201D00F048FA10
:101B30000A480068401E0949086009480068401EBC
:101B40000749086000F0BCFA204600F00BF8044892
:101B500000680028E4D110BD4404002038000020B3
:101B60003400002010B5044694F8510030B9206BC1
:101B700000F0C4FA204600F0C1FA1AE094F85100CF
:101B8000012803D1204600F0B9FA12E094F8510080
:101B9000022801D1012000E0002050B900BF5020F0
:101BA00080F31188BFF34F8FBFF36F8F00BF00BF6B
:101BB000FEE710BD30B54FF44063174800F007044E
:101BC0002CB1C01D20F00700134C041B1B1B024648
:101BD000124C22600024114D6C60D018083820F09F
:101BE00007000F4C206000240D4D2D686C600C4DDB
:101BF0002D682C601146441A4C60094C24680C6016
:101C0000084D4C682C60084D4C682C604FF0004427
:101C1000064D2C6030BD00006C04002064000020E4
:101C20006C00002074000020700000208000002064
:101C300000BFFFF773FF064800680128F9D94FF08D
:101C4000805004490860BFF34F8FBFF36F8FF0E7F8
:101C50007C03002004ED00E02DE9FF5F81460E4685
:101C60009246DDE90E7B109CAAF10100216B01EB8D
:101C7000800828F0070808F0070008B9012000E0F4
:101C8000002050B900BF502080F31188BFF34F8F60
:101C9000BFF36F8F00BF00BFFEE786B1002507E0EE
:101CA000715D04F134004155705D00B902E06D1CB6
:101CB000102DF5D300BF00214320015502E0002084
:101CC00084F83400072F00D30627E76267640020FA
:101CD000A064201D00F0A1F904F1180000F09DF9A6
:101CE0002461C7F10700A06164620020E06484F809
:101CF000500049464046039A00F050F92060BBF17D
:101D0000000F01D0CBF80040BDE8FF9F10B50024C4
:101D100007E004EB84010F4A02EB810000F070F948
:101D2000641C072CF5D30C4800F06AF90B4800F04E
:101D300067F90B4800F064F90A4800F061F90A48B5
:101D400000F05EF904480949086004480849086041
:101D500010BD00007C030020080400201C040020AB
:101D60003004002044040020580400202C000020EF
:101D70003000002010B50146164800E000680368F6
:101D80008B42FBD30246436813448B4204D1436821
:101D90004C682344436001460A464B681344046878
:101DA000A34211D10C4C03682468A34208D04B68AD
:101DB0000468646823444B6003681B680B6005E09B
:101DC000054B1B680B6001E003680B60884200D084
:101DD000016010BD640000206C0000200A49096801
:101DE000096809B9012100E0002121B14FF0FF315C
:101DF000064A116006E004490968C968C868034AD0
:101E000041681160704700002C000020580000203D
:101E10000E480068401C08B9012000E0002050B9BD
:101E200000BF502080F31188BFF34F8FBFF36F8F37
:101E300000BF00BFFEE700BF502080F31188BFF352
:101E40004F8FBFF36F8F00BF00BFFEE784000020FD
:101E50002DE9F04104464FF0000800F03BFA4948F4
:101E6000006808B9FFF7A6FE474800682040002830
:101E700070D1D4B1083404F00700B0B104F0070009
:101E8000C0F10800044404F0070008B9012000E094
:101E9000002050B900BF502080F31188BFF34F8F4E
:101EA000BFF36F8F00BF00BFFEE7002C52D0374852
:101EB000006884424ED8364E3046056801E02E4612
:101EC0002D686868A04202D228680028F7D12D4802
:101ED000006885423ED0306800F10808286830600C
:101EE0006868001B102819D92F1907F0070008B9D6
:101EF000012000E0002050B900BF502080F311887D
:101F0000BFF34F8FBFF36F8F00BF00BFFEE768685E
:101F1000001B78606C603846FFF72CFF1B4968682F
:101F20000968081A194908600846006819490968CB
:101F3000884203D21548006816490860124968684B
:101F40000968084368600020286013480068401C46
:101F50001149086000F0BCFB08F0070008B9012037
:101F600000E0002050B900BF502080F31188BFF37B
:101F70004F8FBFF36F8F00BF00BFFEE74046BDE845
:101F8000F08100006C000020800000207000002024
:101F9000640000207400002078000020001F4FF033
:101FA00080730360001F21F001030360001F034BD7
:101FB000036014380260203870470000111E0008CA
:101FC00001460A69D1E901309860D1E901035860FE
:101FD0005068884201D1886850600020086110680C
:101FE000401E106010687047034B0360034B0B608A
:101FF000802313607047000098000020EC00002050
:1020000000F1080141604FF0FF31816000F10801EB
:10201000C1600161002101607047002101617047CA
:1020200010B502460B685C1C0CB9106907E002F1A0
:10203000080000E04068446824689C42FAD944687B
:102040004C604C68A160886041600A611468641C3F
:10205000146010BD42684A6093688B609368596051
:102060009160086103685B1C0360704700BF5020EB
:1020700080F31188BFF34F8FBFF36F8F00BF0E48FF
:102080000068401C0C49086008460068012812D10D
:102090000A480068C0B208B9012000E0002050B929
:1020A00000BF502080F31188BFF34F8FBFF36F8FB5
:1020B00000BF00BFFEE770478400002004ED00E091
:1020C0000D48006850B900BF502080F31188BFF35D
:1020D0004F8FBFF36F8F00BF00BFFEE70648006859
:1020E000401E054908600846006820B9002080F3BA
:1020F000118800BF00BF70478400002070B50646FD
:102100003546002E44D0083D2C46224960680968B7
:10211000084008B1012000E0002050B900BF502065
:1021200080F31188BFF34F8FBFF36F8F00BF00BFE5
:10213000FEE7206808B9012000E0002050B900BF88
:10214000502080F31188BFF34F8FBFF36F8F00BF14
:1021500000BFFEE70F49606809680840C0B1206809
:10216000B0B90C49606809688843606000F0B2F853
:102170000949606809680844074908602046FFF774
:10218000F9FD06480068401C0449086000F0A0FA08
:1021900070BD000080000020700000207C00002046
:1021A00000204FF0E02108618861064800684FF484
:1021B0007A71B0FBF1F0401E4FF0E021486107203A
:1021C000086170472400002070B504460025D4B192
:1021D0001248006808B9012000E0002050B900BF93
:1021E000502080F31188BFF34F8FBFF36F8F00BF74
:1021F00000BFFEE700F06EF800212046FFF7E8FB85
:1022000000F066FA05463DB94FF080500449086079
:10221000BFF34F8FBFF36F8F70BD000060000020D1
:1022200004ED00E010B586B000200590049003AAEC
:1022300004A905A8FFF7D8FE0022DDE90410134623
:10224000CDE9002102901CA11D48039A00F03EF93F
:102250001C4908600846006808B1012400E0002419
:10226000012C15D100BF502080F31188BFF34F8F90
:10227000BFF36F8F00BF4FF0FF301349086001209C
:102280001249086000201249086000F071F810E05F
:10229000601C08B1012000E0002050B900BF5020B0
:1022A00080F31188BFF34F8FBFF36F8F00BF00BF64
:1022B000FEE706B010BD000049444C450000000098
:1022C000311C00085C000020580000204400002061
:1022D0003C00002002480068401C0149086070472B
:1022E000600000201D48006818B101201C490860EA
:1022F00032E000201A4908601A480068B0FA80F0FD
:10230000C0F11F0101EB8100174A52F8200008B10B
:10231000012000E0002050B900BF502080F3118858
:10232000BFF34F8FBFF36F8F00BF00BFFEE701EB1E
:1023300081020D4B03EB820042685268426000F15B
:1023400008024368934202D1426852684260426880
:10235000D268064B1A6000BF704700006000002082
:102360004C000020400000207C03002028000020BA
:102370001CB53849084600780190FF200A461070C5
:102380000846007800909DF8000000F0F0009DF8ED
:102390000020904201D1012000E0002050B900BF90
:1023A000502080F31188BFF34F8FBFF36F8F00BFB2
:1023B00000BFFEE79DF8000000F05000264A1070B4
:1023C0000720264A106009E024480068401E234A7E
:1023D00010609DF800004006000E00909DF800007F
:1023E00000F080008028EFD01C480068C0F1070092
:1023F000042801D1012000E0002050B900BF502086
:1024000080F31188BFF34F8FBFF36F8F00BF00BF02
:10241000FEE7124800680002104A1060104600886B
:1024200000F4E06010600B4A019810700C480068DE
:1024300040F470000A4908600846006840F07040A7
:102440000860FFF7ADFE002006490860FDF7D0FEEA
:1024500000201CBD00E400E0880000208C0000206B
:1024600020ED00E0840000202DE9FF4F85B080467C
:1024700089461746DDE912ABB800FFF7E9FC0646CE
:1024800056B15420FFF7E4FC04460CB1266304E087
:102490003046FFF733FE00E000248CB1002084F8C2
:1024A0005100CDE900ABCDE902403A4649464046ED
:1024B000089BFFF7D1FB2046FFF7D6FA012501E084
:1024C0004FF0FF35284609B0BDE8F08F2DE9F04FF9
:1024D00085B00746884691469A46DDE90EB6109CBF
:1024E0000EB1012000E0002050B900BF502080F361
:1024F0001188BFF34F8FBFF36F8F00BF00BFFEE7A0
:102500000CB1012000E0002050B900BF502080F342
:102510001188BFF34F8FBFF36F8F00BF00BFFEE77F
:10252000542003900398542801D1012000E000209A
:1025300050B900BF502080F31188BFF34F8FBFF315
:102540006F8F00BF00BFFEE700BFB4B1AEB125463C
:102550002C462E63022085F85100002004A9534622
:102560004A46CDE900B1CDE9025041463846FFF771
:1025700073FB2846FFF778FA01E0002004900498E6
:1025800005B0BDE8F08F00002DE9F0414FF00008E4
:102590004448006800287CD143480068451C4248F4
:1025A000056015BB41480068006808B9012000E0DB
:1025B000002050B900BF502080F31188BFF34F8F27
:1025C000BFF36F8F00BF00BFFEE738480768384889
:1025D0000068364908603648076036480068401C85
:1025E00034490860FFF7FAFB00BF334800688542B2
:1025F0003CD300BF2D480068006808B9012000E006
:10260000002020B14FF0FF302B4908602DE0274813
:102610000068C068C4686668B54202D22648066091
:1026200023E0201DFFF7CCFCA06A18B104F11800CC
:10263000FFF7C6FC94F82C10012088401F49096858
:1026400008431E490860E16A01EB81011C4A02EB64
:102650008100211DFFF7FEFC1A49E06A0968C96A7A
:102660008842C7D34FF00108C4E700BF154800688F
:10267000C06A00EB8000124951F82000012801D9FE
:102680004FF001081048006808B14FF0010805E05C
:10269000FFE70E480068401C0C4908604046BDE852
:1026A000F0810000600000203C0000202C00002091
:1026B0003000002050000020580000204000002082
:1026C0007C030020280000204C000020480000204F
:1026D00070B5002400263648006850B900BF50206D
:1026E00080F31188BFF34F8FBFF36F8F00BF00BF20
:1026F000FEE7FFF7BBFC2E480068401E2C4908602F
:102700000846006800284FD12A48006800284BD0AE
:1027100024E02948C068C46804F11800FFF750FCA1
:10272000201DFFF74DFC94F82C1001208840234910
:102730000968084321490860E16A01EB8101204AE8
:1027400002EB8100211DFFF785FC1E49E06A096844
:10275000C96A884202D301201B49086016480068F4
:1027600008B9012000E000200028D2D00CB1FFF70A
:1027700035FB1648056865B100BFFFF705FF10B1CE
:102780000120114908606D1E002DF6D100200F496F
:1027900008600D48006838B1012630070C49086010
:1027A000BFF34F8FBFF36F8FFFF78AFC304670BDCA
:1027B000600000203800002030040020400000208D
:1027C0007C030020280000204C000020480000204E
:1027D00004ED00E03828000835170008000000006C
:1027E0000000000080000000000000000000000069
:1027F0004428000899180008FDFF000000000000B0
:10280000800000000000000000000000020304053A
:10281000060708090A0B0C0D0E0F1010010200002C
:102820000000000000000102030406070809000080
:1028300000000102030400004C45445F5441534B27
:102840000000000055495F5461736B006C2800085C
:1028500000000020980000006C0100080429000816
:1028600098000020381600008801000800000000D1
:102870000000000000000000000000000000000058
:102880000000000000000000100000000100000037
:1028900000127A00000000000000000000000000AC
:1028A0000000000000000000000000000000000028
:1028B0000000000000000000000000000000000018
:1028C0000000000000000000000000000000000008
:1028D00000000000000000000000000000000000F8
:1028E00000000000000000000000000000000000E8
:1028F000AAAAAAAA00000000000000000000000030
:0429000000000000D3
:0400000508000131BD
:00000001FF
