:020000040800F2
:10000000E01600206502000809170008EF14000838
:1000100005170008CF030008B11800080000000011
:10002000000000000000000000000000CD010008FA
:10003000D303000800000000110200084117000867
:100040007F0200087F0200087F0200087F0200088C
:100050007F0200087F0200087F0200087F0200087C
:100060007F0200087F0200087F0200087F0200086C
:100070007F0200087F0200087F0200087F0200085C
:100080007F0200087F0200087F0200087F0200084C
:100090007F0200087F0200087F0200087F0200083C
:1000A0007F020008DD1700087F0200087F020008B9
:1000B0007F0200087F0200087F0200087F0200081C
:1000C0007F0200087F0200087F0200087F0200080C
:1000D0007F0200087F0200087F0200087F020008FC
:1000E0007F0200087F0200087F0200087F020008EC
:1000F0007F0200087F0200087F0200087F020008DC
:100100007F0200087F0200087F0200087F020008CB
:100110007F0200087F0200087F0200087F020008BB
:100120007F0200087F0200087F0200087F020008AB
:1001300000F002F800F03AF80AA090E8000C8244BF
:100140008344AAF10107DA4501D100F02FF8AFF29C
:10015000090EBAE80F0013F0010F18BFFB1A43F0A5
:100160000103184798380000B8380000103A24BF3F
:1001700078C878C1FAD8520724BF30C830C144BF0C
:1001800004680C607047000000230024002500264E
:10019000103A28BF78C1FBD8520728BF30C148BFEA
:1001A0000B6070471FB51FBD10B510BD00F0D6F82D
:1001B0001146FFF7F7FF01F003FD00F0F4F803B478
:1001C000FFF7F2FF03BC00F0FBF80000224B1968B8
:1001D0000868B0E8F00F80F30988BFF36F8F4FF025
:1001E000000080F311884EF00D0E704700000000F3
:1001F00006480068006880F3088862B661B6BFF3FD
:100200004F8FBFF36F8F00DF00BF00BF08ED00E02E
:10021000EFF30980BFF36F8F0F4B1A6820E9F00FDF
:10022000106008B54FF0500080F31188BFF34F8F76
:10023000BFF36F8F03F02EF94FF0000080F31188A9
:10024000BDE8084019680868B0E8F00F80F3098835
:10025000BFF36F8F704700BF28000020EFF30580C9
:10026000704700000948804709480047FEE7FEE75D
:10027000FEE7FEE7FEE7FEE7FEE7FEE7FEE7FEE756
:1002800004480549054A064B70470000DB17000883
:1002900031010008E0100020E0160020E0120020EC
:1002A000E012002010B5203AC0F00B80B1E81850E1
:1002B000203AA0E81850B1E81850A0E81850BFF450
:1002C000F5AF5FEA027C24BFB1E81850A0E81850EF
:1002D00044BF18C918C0BDE810405FEA827C24BF43
:1002E00051F8043B40F8043B08BF7047D20728BFD1
:1002F00031F8023B48BF11F8012B28BF20F8023B20
:1003000048BF00F8012B70474FF0000200B51346BC
:1003100094469646203922BFA0E80C50A0E80C5025
:10032000B1F12001BFF4F7AF090728BFA0E80C50D6
:1003300048BF0CC05DF804EB890028BF40F8042BCF
:1003400008BF704748BF20F8022B11F0804F18BF3C
:1003500000F8012B7047704770477047754600F0F2
:100360002BF8AE4605006946534620F00700854647
:1003700018B020B5FFF784FFBDE820404FF000061D
:100380004FF000074FF000084FF0000B21F007017D
:10039000AC46ACE8C009ACE8C009ACE8C009ACE8C0
:1003A000C0098D46704710B50446AFF30080204663
:1003B000BDE81040FFF703BF004870477C100020E5
:1003C00001491820ABBEFEE726000200704700BFBF
:1003D000FEE7704772B600BFFEE7000070B5044646
:1003E000B3F5804F13D1D1E9000540EA05108D68BF
:1003F00040EA05208D6928438D8940EA054054F87C
:100400002250064E3540284344F8220003E06FF0A6
:10041000704044F82200002070BD00000000F0CFC2
:1004200070B50246086852F8200020F001000E68FE
:1004300042F826008868082801D1402300E0002304
:10044000486818438E683043CE6830430E693043A5
:100450004E693043CE6930430E6A30434E6A3043B2
:100460008E6A3043CE6A30430E6B40EA06048869D8
:100470000443486B0443074D45F4806545F4E0258B
:10048000086852F82000A84320430E6842F826006E
:10049000002070BD7FFB080010B50346D1E90004C1
:1004A00040EA04108C6840EA04208C8940EA044445
:1004B000088A401E44EA0054087D801E44EA006019
:1004C0008C692043541C43F82400002010BD10B553
:1004D00004460CB9012010BD607920B900202071BC
:1004E000204600F005F8012060710020F3E70000CD
:1004F00008B5094A016891420DD100BF0749496911
:1005000041F04001054A51611146496901F040013D
:10051000009100BF00BF08BD003002400010024043
:1005200000B585B0002001900290039004901C4813
:10053000006808B105B000BD01201949086000BF7E
:100540001848406940F4807016494861084640697F
:1005500000F48070009000BF00BF41F201000190E4
:10056000022002900320049001A90F4800F022F815
:100570004FF680700190022002900320049001A9A0
:100580000A4800F017F84CF23370019002200290F4
:100590000320049001A9064800F00CF800BFC9E749
:1005A000100000200010024000200140001801400F
:1005B000001401402DE9F847024600239C467BE1E8
:1005C0004FF0010808FA03F4D1F8008008EA0400AB
:1005D000A0427DD1DFF8F4A2D1F80480A8EB0A098B
:1005E000D0453AD014DCB8F1030F50D009DCB8F193
:1005F000000F31D0B8F1010F1CD0B8F1020F49D172
:1006000020E0B8F1110F18D0B8F1120F42D11EE05E
:10061000B9F5881F25D006DCB9F5803F20D0B9F5A3
:10062000801F37D11AE0B9F5001F18D0B9F5041FA3
:1006300030D117E0D1F80CC02DE0D1F80C8008F1D2
:10064000040C28E0D1F80C8008F1080C23E0D1F864
:100650000C8008F10C0C1EE000BF00BF00BF00BF03
:1006600000BF00BFD1F80880B8F1000F02D14FF0F1
:10067000040C0BE0D1F80880B8F1010F03D14FF062
:10068000080C146102E04FF0080C546103E04FF0D5
:10069000000C00E000BF00BFFF2801D8904601E039
:1006A00002F104084646FF2802D84FEA830803E017
:1006B000A3F108084FEA88084746D6F800804FF0B3
:1006C0000F0909FA07F928EA09080CFA07F900E006
:1006D0007AE048EA0908C6F80080D1F8048008F0FA
:1006E0008058B8F1805F6FD100BFDFF8E481D8F89F
:1006F000188048F00108DFF8D891C9F81880C8467A
:10070000D8F8188008F00108CDF8008000BF00BFBD
:100710004FEAB9384FEA930958F829504FEA8378DD
:100720004FEA18794FF00F0808FA09F825EA08058A
:10073000DFF8A081424502D14FF0000824E0DFF845
:100740009881424502D14FF001081DE0DFF88C810D
:10075000424502D14FF0020816E0DFF8848142459D
:1007600002D14FF003080FE0DFF87881424502D153
:100770004FF0040808E0DFF87081424502D14FF0E5
:10078000050801E04FF006084FEA83794FEA19792E
:1007900008FA09F848EA0505DFF850814FEA93099D
:1007A00048F82950D1F8048008F48018B8F5801F63
:1007B0000BD1DFF83C81D8F8008048EA0008DFF868
:1007C0003091C9F800800AE075E0DFF82481D8F89C
:1007D000008028EA0008DFF81891C9F80080D1F8F5
:1007E000048008F40018B8F5001F0ED1DFF800816E
:1007F00008F10408D8F8008048EA0008DFF8F09013
:1008000009F10409C9F800800DE0DFF8E48008F17F
:100810000408D8F8008028EA0008DFF8D49009F12D
:100820000409C9F80080D1F8048008F40038B8F54C
:10083000003F0ED1DFF8B880A8F10408D8F8008096
:1008400048EA0008DFF8A890A9F10409C9F8008077
:100850000DE0DFF89C80A8F10408D8F8008028EAB1
:100860000008DFF88C90A9F10409C9F80080D1F8DC
:10087000048008F48038B8F5803F0ED1DFF870802E
:10088000A8F10808D8F8008048EA0008DFF860906E
:10089000A9F10809C9F800800DE0DFF85480A8F13B
:1008A0000808D8F8008028EA0008DFF84490A9F189
:1008B0000809C9F800805B1CD1F8008028FA03F809
:1008C000B8F1000F7FF47CAEBDE8F887000011108E
:1008D0000010024000080140000C014000100140DF
:1008E0000014014000180140001C014008000140B4
:1008F0000804014010B5C26821EA020302EA0104BB
:1009000043EA0443036110BD0AB1016101E00B0435
:10091000036170470148006870470000180000201C
:100920000348006803490978084401490860704792
:10093000180000202000002010B50848006840F092
:10094000100006490860032000F0D8F80F2000F0DE
:1009500007F800F055F8002010BD0000002002400C
:10096000F0B587B0044600260027002500BF1F48C9
:10097000806940F400601D4988610846806900F480
:100980000060009000BF00BF01A902A800F090F92C
:1009900000F0B6F906461648B6FBF0F0471E1548BB
:1009A0001549086040F2E7311348C16047600021F3
:1009B00001618160816100F057FC054695B90E48E0
:1009C00000F086FC05466DB9192000F049F8102C9E
:1009D00007D200222146192000F052F8074804608F
:1009E00000E00125284607B0F0BD000000100240DD
:1009F00040420F00002C0140440300201C00002056
:100A000008B500BF1448806940F0010012498861B0
:100A10000846806900F00100009000BF00BF00BFE1
:100A20000846C06940F08050C8610846C06900F0BF
:100A30008050009000BF00BF00220F21901E00F0E8
:100A40001FF800BF0549486820F0E06040F00070E2
:100A5000486000BF08BD00000010024000000140D7
:100A600001460846002809DB00F01F0301229A40D6
:100A700043099B0003F1E023C3F8002100BF704746
:100A80002DE9F05F80460D461646002700F012FF64
:100A9000074639462A46334601F00700C0F1070AE7
:100AA000BAF1040F02D94FF0040A01E0C0F1070ABD
:100AB000D14600F1040ABAF1070F02D24FF0000A42
:100AC00001E0A0F1030AD4464FF0010A0AFA09FA3C
:100AD000AAF1010A0AEA020A0AFA0CFA4FF0010B1B
:100AE0000BFA0CFBABF1010B0BEA030B4AEA0B040C
:100AF0002146404600F0E6FEBDE8F09F00BF00F052
:100B00000702064B19684FF6FF031940044B0B43CD
:100B100043EA0221014B196000BF70470CED00E071
:100B20000000FA0570B504460D460CB9012070BDF1
:100B30005A48006800F00700A8420ED257480068E3
:100B400020F007002843554908600846006800F077
:100B50000700A84201D00120E9E7207800F0020058
:100B600002281DD1207800F00400042805D14C484B
:100B7000406840F4E0604A494860207800F008008E
:100B8000082805D14648406840F460504449486010
:100B90004348406820F0F000A1680843404948609D
:100BA000207800F0010078B36068012806D13C4845
:100BB000006800F4003090B90120B8E760680228AE
:100BC00006D13748006800F0007040B90120AEE758
:100BD0003348006800F0020008B90120A7E7304858
:100BE000406820F00300616808432D494860FFF722
:100BF00091FE064609E0FFF78DFE801B41F2883129
:100C0000884202D9032092E707E02548406800F0B7
:100C10000C006168B0EB810FEDD12048006800F056
:100C20000700A8420ED91D48006820F0070028439D
:100C30001A4908600846006800F00700A84201D081
:100C4000012074E7207800F00400042807D114483C
:100C5000406820F4E060E16808431149486020786A
:100C600000F00800082808D10D48406820F46050C2
:100C7000216940EAC1000A49486000F051F808497A
:100C80004968C1F30311074A515CC840064908602E
:100C900006480068FFF764FE002048E70020024095
:100CA00000100240CE390008240000201C00002063
:100CB0000F2202600D4A526802F0030242600B4AA2
:100CC000526802F0F0028260084A526802F4E06260
:100CD000C260064A526802F46052D2080261044AB5
:100CE000126802F007020A6070470000001002401C
:100CF00000200240014800687047000024000020E6
:100D000000B5FFF7F7FF04494968C1F3C221034A60
:100D1000515CC84000BD000000100240DE390008F0
:100D200070B500210022002400230020134D6968C3
:100D300001F00C05F5B1042D02D0082D19D101E008
:100D40000F4819E00F4DC1F38346AB5D01F48035C8
:100D500055B10A4D6D68C5F340450B4E725D084DA7
:100D60005D43B5FBF2F402E0084D03FB05F42046B9
:100D700002E000BF024800BF00BF70BD001002408B
:100D800000127A00BC390008CC39000800093D0087
:100D9000F8B504460CB90120F8BD207800F0010038
:100DA000002878D0F848406800F00C0004280CD0E7
:100DB000F548406800F00C00082811D1F24840685E
:100DC00000F48030B0F5803F0AD1EF48006800F4AD
:100DD000003000285FD0606800285CD10120DBE78C
:100DE00000BF6068B0F5803F06D1E748006840F476
:100DF0008030E549086028E0606858B9E24800683A
:100E000020F48030E04908600846006820F4802023
:100E100008601AE06068B0F5A02F0BD1DA480068CE
:100E200040F48020D84908600846006840F48030CB
:100E300008600AE0D448006820F48030D249086095
:100E40000846006820F48020086000BF606888B110
:100E5000FFF760FD054606E0FFF75CFD401B6428D8
:100E600001D9032098E7C848006800F40030002842
:100E7000F2D010E0FFF74EFD054606E0FFF74AFD11
:100E8000401B642801D9032086E7BF48006800F4AE
:100E900000300028F2D1207800F00200022857D15B
:100EA000B948406800F00C0050B1B748406800F005
:100EB0000C00082818D1B448406800F4803098B974
:100EC000B148006800F0020020B12069012801D07B
:100ED000012061E7AC48006820F0F800616940EA51
:100EE000C100A949086033E02069E8B10120A749A1
:100EF0000860FFF70FFD054606E0FFF70BFD401BFE
:100F0000022801D9032047E79F48006800F002004B
:100F10000028F2D09C48006820F0F800616940EA9F
:100F2000C1009949086013E0002098490860FFF764
:100F3000F1FC054606E0FFF7EDFC401B022801D955
:100F4000032029E79048006800F002000028F2D151
:100F5000207800F0080008282DD1A069B8B1012040
:100F60008B490860FFF7D6FC054606E0FFF7D2FC88
:100F7000401B022801D903200EE78348406A00F095
:100F800002000028F2D0012000F0C0FB13E0002096
:100F90007F490860FFF7BEFC054606E0FFF7BAFC94
:100FA000401B022801D90320F6E67748406A00F08A
:100FB00002000028F2D1207800F00400042873D148
:100FC00000277148C06900F0805070B900BF6E48BA
:100FD000C06940F080506C49C8610846C06900F0A3
:100FE0008050009000BF00BF01276A48006800F4ED
:100FF0008070B0B96748006840F480706549086047
:10100000FFF788FC054606E0FFF784FC401B6428D8
:1010100001D90320C0E65F48006800F48070002812
:10102000F2D000BFE068012806D15748006A40F0BE
:1010300001005549086227E0E06858B95248006A43
:1010400020F00100504908620846006A20F00400C0
:10105000086219E0E06805280BD14B48006A40F0AF
:101060000400494908620846006A40F0010008622D
:101070000AE04548006A20F001004349086208463A
:10108000006A20F00400086200BFE068A0B1FFF72A
:1010900041FC054609E0FFF73DFC401B41F2883169
:1010A000884202D9032077E622E03748006A00F040
:1010B00002000028EFD012E0FFF72CFC054608E004
:1010C000FFF728FC401B41F28831884201D90320F8
:1010D00062E62D48006A00F002000028F0D1012FDE
:1010E00005D12948C06920F080502749C86100BF58
:1010F000E069C8B32448406800F00C00082860D0BC
:10110000E069022848D1002020490866FFF702FC68
:10111000054606E0FFF7FEFB401B022801D903202D
:101120003AE61948006800F000700028F2D1206A01
:10113000B0F5803F07D11448406820F40030A16822
:10114000084311494860D4E9080108430E49496839
:1011500021F4741108430C49486001200B490866CA
:10116000FFF7D8FB054607E03DE0FFF7D3FB401B48
:10117000022801D903200FE60348006800F0007040
:101180000028F2D02FE00000001002400000424290
:101190008004424200700040002014490866FFF7B6
:1011A000B9FB054606E0FFF7B5FB401B022801D955
:1011B0000320F1E50E48006800F000700028F2D12D
:1011C00011E0E069012800D1E6E50948466806F427
:1011D0008031206A814204D106F47011606A814234
:1011E00001D00120D8E50020D6E5000000004242F1
:1011F0000010024070B504460E4615461CB1A069A9
:10120000B0F5807F01D1012070BD94F8410028B96C
:10121000002084F84000204600F01FF804F1080187
:101220002068FFF7FDF83146A2682068FFF734F91F
:101230002946236BD4E90102FFF7D0F8A1682068A2
:1012400050F8210040F00100A268216841F8220016
:10125000012084F841000020D6E710B50446FFF7CE
:101260005FF910BD7047704710B504460CB90120F6
:1012700010BD94F83D0028B9002084F83C002046B9
:1012800000F025F8022084F83D00211D206800F0C0
:10129000ADFA012084F8460000BF84F83E00012129
:1012A0003F200155402001554120015500BF00BF9E
:1012B000012084F842004320015544200155452077
:1012C000015500BF012084F83D000020D0E77047A1
:1012D000014691F83D00012801D00120704702200D
:1012E00081F83D000868C06840F001000B68D860D4
:1012F000164B0868984213D0154B086898420FD0D7
:101300000868B0F1804F0BD0124B0868984207D0A4
:10131000114B0868984203D0104B086898420CD1D2
:101320000868806800F00702062A0CD00868006888
:1013300040F001000B68186005E00868006840F0A4
:1013400001000B6818600020C8E70000002C014075
:10135000003401400004004000080040000C004040
:10136000704770B504462068C5682068066906F0B5
:101370000200022819D105F00200022815D1401FF1
:1013800021680861012020772068806900F003004F
:1013900018B12046FFF7E4FF05E0204600F097F87B
:1013A000204600F095F80020207706F0040004287D
:1013B00019D105F00400042815D1C0432168086143
:1013C000022020772068806900F4407018B1204620
:1013D000FFF7C6FF05E0204600F079F8204600F050
:1013E00077F80020207706F00800082819D105F0CA
:1013F0000800082815D1C04321680861042020771F
:101400002068C06900F0030018B12046FFF7A8FF6C
:1014100005E0204600F05BF8204600F059F8002077
:10142000207706F01000102819D105F010001028C0
:1014300015D1C04321680861082020772068C06961
:1014400000F4407018B12046FFF78AFF05E02046FF
:1014500000F03DF8204600F03BF80020207706F031
:10146000010048B105F0010030B16FF001002168C2
:101470000861204600F02EF806F08000802809D18F
:1014800005F08000802805D1C0432168086120460E
:10149000FFF7E8FE06F04000402809D105F04000C3
:1014A000402805D1C04321680861204600F01EF89D
:1014B00006F02000202809D105F02000202805D1C1
:1014C000C043216808612046FFF7CDFE70BD70471C
:1014D0007047000010B5044603492068884201D1D6
:1014E000FFF71EFA10BD0000002C0140704700BF3E
:1014F000FEE7000010B50548054908600846FEF7FC
:10150000E6FF08B1FEF766FF10BD000000300240A4
:101510000800002000B58FB01C220C4908A8FEF777
:10152000C1FE002108A801F0FCFA094908601C224C
:1015300006491C3101A8FEF7B5FE002101A801F003
:10154000F0FA044908600FB000BD000084390008BB
:10155000000000200400002000B58FB01C2108A866
:10156000FEF7D2FE1C2101A8FEF7CEFE4FF0204070
:1015700023490860234848600620886000212048ED
:10158000C16001611021416100218161C16101627D
:1015900041624FF4805181620021C1624FF4804169
:1015A0000163002141638163012008900F200990AD
:1015B0000B200A9000200B9010200C9011200D9011
:1015C00000200E9001900F20029001200390002037
:1015D000049010200590112006900020079001AA89
:1015E00008A90748FFF706FE08B1FEF7F3FE064814
:1015F000C06940F480600449C8610FB000BD0000BC
:10160000FC020020040100A00000014000B585B0EC
:101610000020019002900390049000BF3748806939
:1016200040F01000354988610846806900F01000DC
:10163000009000BF00BF00BF0846806940F008006E
:1016400088610846806900F00800009000BF00BF74
:1016500000BF0846806940F4807088610846806950
:1016600000F48070009000BF00BF00BF0846806992
:1016700040F0400088610846806900F0400000901A
:1016800000BF00BF00BF0846806940F020008861AD
:101690000846806900F02000009000BF00BF00BF36
:1016A0000846806940F0040088610846806900F0BF
:1016B0000400009000BF00BF012211461048FFF750
:1016C00023F9002220210E48FFF71EF90120019086
:1016D0000290002003900220049001A90848FEF720
:1016E00069FF2020019001200290039002200490C5
:1016F00001A90348FEF75EFF05B000BD00100240DF
:10170000000C014000BFFEE700BFFEE708B5084936
:101710000968C9084FF47A72B1FBF2F141430091B4
:1017200000BF00BF00994A1E00920029F9D108BDF0
:101730002400002000BF4FF4FA7001F0E1F9FAE74D
:1017400010B500BF502080F31188BFF34F8FBFF357
:101750006F8F00BF01F0F0FF18B14FF080500449C7
:10176000086000BF002080F3118800BF10BD00009A
:1017700004ED00E000B58FB0282105A8FEF7C4FDF8
:1017800014216846FEF7C0FD012005900004069074
:10179000002007900120099002200C90C1030D91B8
:1017A0004FF4E0110E9105A8FFF7F2FA08B1FEF729
:1017B00011FE0F20009002200190002002904FF4B3
:1017C000806003900020049002216846FFF7AAF988
:1017D00008B1FEF7FFFD0FB000BD704710B502481D
:1017E000FFF7BFFD10BD00004403002010B50268E4
:1017F000244B98420ED0244B98420BD0B0F1804F2E
:1018000008D0224B984205D0214B984202D0214B60
:10181000984203D122F070024B681A43194B984248
:101820000ED0194B98420BD0B0F1804F08D0174B17
:10183000984205D0164B984202D0164B984203D1DD
:1018400022F44072CB681A4322F080034C6943EAC9
:10185000040202608B68C3620B688362094B984282
:1018600002D0094B984201D10B6903630123436104
:10187000036903F001031BB1036923F00103036152
:1018800010BD0000002C0140003401400004004065
:1018900000080040000C004000BF4FF4FA7001F057
:1018A0002FF920210148FFF725F8F6E7000C014049
:1018B00000BFFEE702480068C0F302207047000046
:1018C0000CED00E010B5002804DB0A07130E054AF2
:1018D000135406E00A07140E034A00F00F031B1FFF
:1018E000D45410BD00E400E018ED00E007480068A3
:1018F0000749B0FBF1F007490860044800684FF45D
:101900007A71B0FBF1F004490860704724000020B0
:1019100040420F00900000209400002010B50446C3
:1019200003E04FF47A7000F005F8201EA4F10104E2
:10193000F7D110BD01460F4A126801FB02F0B0F169
:10194000807F01D36FF07F40421E4FF0E0235A6149
:1019500000229A6105221A6100BF4FF0E02212694D
:1019600002F48032002AF8D000224FF0E0231A61FE
:101970009A6170479000002070B5044600250A481F
:1019800000880949498800FB01F60021084600F05B
:10199000DBF800F003F900BF02E0044804806D1C8E
:1019A000B542FAD370BD0000980000200008006C1A
:1019B00010B504460E4884712C200D4908812A2058
:1019C00048812B20888134B94FF4A07008804FF4EF
:1019D000F070488006E04FF4F070054908804FF43D
:1019E000A07048800249887900F056F810BD0000C8
:1019F0009800002070B505460E461446314628462C
:101A000000F0A2F800F0CAF80148048070BD0000A0
:101A10000008006C2DE9F04F05460E461746984623
:101A2000DDF824A04FF0000B781B401C1FFA80FB50
:101A3000344613E02146284600F086F800F0AEF860
:101A40004FF0000906E00748A0F800A009F10100E6
:101A50001FFA80F9D945F6DB601C84B24445E9DD04
:101A6000BDE8F08F0008006C10B53220FFF756FF7C
:101A700000F0D0F80020FFF79BFF00BF01221146C5
:101A80000448FEF741FF00BF4FF6FF70FFF774FFF9
:101A900010BD0000000C0140F0B5054600263627B9
:101AA000012D0ED1E0262748008826494988884222
:101AB00014DA244804884088224908800846448073
:101AC0000CE0204800881F494988884206DD1D48EF
:101AD000048840881B4908800846448031463846BF
:101AE00000F066F81749488900F050F8002000F02F
:101AF00045F8002000F042F812490988491EC1F358
:101B00000F2000F03BF80F490978491EC8B200F0D9
:101B100035F80C49888900F039F8002000F02EF8DB
:101B2000002000F02BF807494988491EC1F30F2017
:101B300000F024F803498978491EC8B200F01EF865
:101B4000F0BD00009800002010B502460C460A497E
:101B5000488900F01BF8101200F010F8D0B200F025
:101B60000DF80549888900F011F8201200F006F8F8
:101B7000E0B200F003F810BD9800002001B5BDF8F8
:101B800000000149088008BD0008006C01B5BDF8DF
:101B900000000149088008BDFE07006C024800896A
:101BA000024908807047000098000020FE07006C82
:101BB000024A1080921C118070470000FE07006CE2
:101BC00008B5FEF7B9FEFFF7D5FDFFF71FFDFFF7DC
:101BD00091FCFFF7C1FCFFF789FEFFF745FF4FF4CB
:101BE0007840F023A022002100900846FFF712FF62
:101BF000002264210846FFF7FDFEFFF78BFC00F092
:101C00008BFF00BFFEE701460020842901D0CA1CDB
:101C10001044704710B5ED20FFF7B8FF0120FFF723
:101C2000ADFFFE20FFF7AAFFEE20FFF7AFFFDE209B
:101C3000FFF7A4FF2120FFF7A1FFF120FFF7A6FF88
:101C40000120FFF79BFFDF20FFF7A0FF1020FFF729
:101C500095FFC420FFF79AFF8F20FFF78FFFC62064
:101C6000FFF794FF0020FFF789FFE220FFF786FFD0
:101C7000E220FFF783FFE220FFF780FFBF20FFF79E
:101C800085FFAA20FFF77AFFB020FFF77FFF0D2026
:101C9000FFF774FF0020FFF771FF0D20FFF76EFFC5
:101CA0000020FFF76BFF1120FFF768FF0020FFF710
:101CB00065FF1920FFF762FF0020FFF75FFF21207B
:101CC000FFF75CFF0020FFF759FF2D20FFF756FFBD
:101CD0000020FFF753FF3D20FFF750FF0020FFF7E4
:101CE0004DFF5D20FFF74AFF0020FFF747FF5D2013
:101CF000FFF744FF0020FFF741FFB120FFF746FF49
:101D00008020FFF73BFF0020FFF738FF8B20FFF715
:101D100035FF0020FFF732FF9620FFF72FFF00204E
:101D2000FFF72CFFB220FFF731FF0020FFF726FF5F
:101D30000020FFF723FF0220FFF720FF0020FFF71E
:101D40001DFF0320FFF71AFF0020FFF717FFB32046
:101D5000FFF71CFF0020FFF711FF0020FFF70EFF29
:101D60000020FFF70BFF0020FFF708FF0020FFF720
:101D700005FF0020FFF702FF0020FFF7FFFE002015
:101D8000FFF7FCFE0020FFF7F9FE0020FFF7F6FE4C
:101D90000020FFF7F3FE0020FFF7F0FE0020FFF722
:101DA000EDFE0020FFF7EAFE0020FFF7E7FE00202F
:101DB000FFF7E4FE0020FFF7E1FE0020FFF7DEFE64
:101DC0000020FFF7DBFE0020FFF7D8FE0020FFF722
:101DD000D5FE0020FFF7D2FE0020FFF7CFFE002047
:101DE000FFF7CCFEB420FFF7D1FE8B20FFF7C6FE35
:101DF0000020FFF7C3FE9620FFF7C0FE0020FFF78C
:101E0000BDFEA120FFF7BAFE0020FFF7B7FEB52008
:101E1000FFF7BCFE0220FFF7B1FE0020FFF7AEFE89
:101E20000320FFF7ABFE0020FFF7A8FE0420FFF71A
:101E3000A5FE0020FFF7A2FEB620FFF7A7FE0020B8
:101E4000FFF79CFE0020FFF799FEB720FFF79EFEEC
:101E50000020FFF793FE0020FFF790FE3F20FFF7E2
:101E60008DFE0020FFF78AFE5E20FFF787FE002030
:101E7000FFF784FE6420FFF781FE0020FFF77EFE5F
:101E80008C20FFF77BFE0020FFF778FEAC20FFF7E9
:101E900075FE0020FFF772FEDC20FFF76FFE0020CA
:101EA000FFF76CFE7020FFF769FE0020FFF766FE6B
:101EB0009020FFF763FE0020FFF760FEEB20FFF7A6
:101EC0005DFE0020FFF75AFEDC20FFF757FE0020E2
:101ED000FFF754FEB820FFF759FE0020FFF74EFE33
:101EE0000020FFF74BFE0020FFF748FE0020FFF721
:101EF00045FE0020FFF742FE0020FFF73FFE0020D6
:101F0000FFF73CFE0020FFF739FEBA20FFF73EFE48
:101F10002420FFF733FE0020FFF730FE0020FFF7FC
:101F20002DFE0020FFF72AFEC120FFF72FFE202004
:101F3000FFF724FE0020FFF721FE5420FFF71EFECE
:101F40000020FFF71BFEFF20FFF718FE0020FFF721
:101F500015FEC220FFF71AFE0A20FFF70FFE002031
:101F6000FFF70CFE0420FFF709FE0020FFF706FE36
:101F7000C320FFF70BFE3C20FFF700FE0020FFF719
:101F8000FDFD3A20FFF7FAFD0020FFF7F7FD3920AD
:101F9000FFF7F4FD0020FFF7F1FD3720FFF7EEFD1E
:101FA0000020FFF7EBFD3C20FFF7E8FD0020FFF7E6
:101FB000E5FD3620FFF7E2FD0020FFF7DFFD3220D0
:101FC000FFF7DCFD0020FFF7D9FD2F20FFF7D6FD3E
:101FD0000020FFF7D3FD2C20FFF7D0FD0020FFF7F6
:101FE000CDFD2920FFF7CAFD0020FFF7C7FD262001
:101FF000FFF7C4FD0020FFF7C1FD2420FFF7BEFD61
:102000000020FFF7BBFD2420FFF7B8FD0020FFF7FD
:10201000B5FD2320FFF7B2FD0020FFF7AFFD3C2008
:10202000FFF7ACFD0020FFF7A9FD3620FFF7A6FD66
:102030000020FFF7A3FD3220FFF7A0FD0020FFF7EF
:102040009DFD2F20FFF79AFD0020FFF797FD2C2024
:10205000FFF794FD0020FFF791FD2920FFF78EFD8B
:102060000020FFF78BFD2620FFF788FD0020FFF7FB
:1020700085FD2420FFF782FD0020FFF77FFD24204F
:10208000FFF77CFD0020FFF779FD2320FFF776FDA9
:102090000020FFF773FDC420FFF778FD6220FFF7F3
:1020A0006DFD0020FFF76AFD0520FFF767FD0020AA
:1020B000FFF764FD8420FFF761FD0020FFF75EFD60
:1020C000F020FFF75BFD0020FFF758FD1820FFF719
:1020D00055FD0020FFF752FDA420FFF74FFD002023
:1020E000FFF74CFD1820FFF749FD0020FFF746FDE4
:1020F0005020FFF743FD0020FFF740FD0C20FFF7C5
:102100003DFD0020FFF73AFD1720FFF737FD0020C7
:10211000FFF734FD9520FFF731FD0020FFF72EFD7E
:10212000F320FFF72BFD0020FFF728FDE620FFF747
:1021300025FD0020FFF722FDC520FFF727FD3220F7
:10214000FFF71CFD0020FFF719FD4420FFF716FDE7
:102150000020FFF713FD6520FFF710FD0020FFF7BB
:102160000DFD7620FFF70AFD0020FFF707FD882010
:10217000FFF704FD0020FFF701FDC620FFF706FD75
:102180002020FFF7FBFC0020FFF7F8FC1720FFF7EB
:10219000F5FC0020FFF7F2FC0120FFF7EFFC002028
:1021A000FFF7ECFCC720FFF7F1FC0020FFF7E6FC8F
:1021B0000020FFF7E3FC0020FFF7E0FC0020FFF722
:1021C000DDFCC820FFF7E2FC0020FFF7D7FC002071
:1021D000FFF7D4FC0020FFF7D1FC0020FFF7CEFC76
:1021E000C920FFF7D3FC0020FFF7C8FC0020FFF751
:1021F000C5FC0020FFF7C2FC0020FFF7BFFC002059
:10220000FFF7BCFC0020FFF7B9FC0020FFF7B6FC8D
:102210000020FFF7B3FC0020FFF7B0FC0020FFF721
:10222000ADFC0020FFF7AAFC0020FFF7A7FC002070
:10223000FFF7A4FC0020FFF7A1FC0020FFF79EFCA5
:102240000020FFF79BFCE020FFF7A0FC1620FFF723
:1022500095FC0020FFF792FC1C20FFF78FFC00206C
:10226000FFF78CFC2120FFF789FC0020FFF786FC9C
:102270003620FFF783FC0020FFF780FC4620FFF7A5
:102280007DFC0020FFF77AFC5220FFF777FC00204E
:10229000FFF774FC6420FFF771FC0020FFF76EFC71
:1022A0007A20FFF76BFC0020FFF768FC8B20FFF71C
:1022B00065FC0020FFF762FC9920FFF75FFC00201F
:1022C000FFF75CFCA820FFF759FC0020FFF756FC45
:1022D000B920FFF753FC0020FFF750FCC420FFF7A4
:1022E0004DFC0020FFF74AFCCA20FFF747FC002006
:1022F000FFF744FCD220FFF741FC0020FFF73EFC33
:10230000D920FFF73BFC0020FFF738FCE020FFF767
:1023100035FC0020FFF732FCF320FFF72FFC0020F4
:10232000FFF72CFCE120FFF731FC1620FFF726FC1D
:102330000020FFF723FC1C20FFF720FC0020FFF704
:102340001DFC2220FFF71AFC0020FFF717FC3620A7
:10235000FFF714FC0020FFF711FC4520FFF70EFCEF
:102360000020FFF70BFC5220FFF708FC0020FFF7CE
:1023700005FC6420FFF702FC0020FFF7FFFB7A203A
:10238000FFF7FCFB0020FFF7F9FB8B20FFF7F6FBC4
:102390000020FFF7F3FB9920FFF7F0FB0020FFF789
:1023A000EDFBA820FFF7EAFB0020FFF7E7FBB920D1
:1023B000FFF7E4FB0020FFF7E1FBC420FFF7DEFBA3
:1023C0000020FFF7DBFBCA20FFF7D8FB0020FFF758
:1023D000D5FBD220FFF7D2FB0020FFF7CFFBD820A0
:1023E000FFF7CCFB0020FFF7C9FBE020FFF7C6FB9F
:1023F0000020FFF7C3FBF320FFF7C0FB0020FFF72F
:10240000BDFBE220FFF7C2FB0520FFF7B7FB002072
:10241000FFF7B4FB0B20FFF7B1FB0020FFF7AEFB8B
:102420001B20FFF7ABFB0020FFF7A8FB3420FFF7D2
:10243000A5FB0020FFF7A2FB4420FFF79FFB002035
:10244000FFF79CFB4F20FFF799FB0020FFF796FB5F
:102450006120FFF793FB0020FFF790FB7920FFF747
:102460008DFB0020FFF78AFB8820FFF787FB002009
:10247000FFF784FB9720FFF781FB0020FFF77EFB2F
:10248000A620FFF77BFB0020FFF778FBB720FFF7C4
:1024900075FB0020FFF772FBC220FFF76FFB0020E7
:1024A000FFF76CFBC720FFF769FB0020FFF766FB17
:1024B000D120FFF763FB0020FFF760FBD620FFF77A
:1024C0005DFB0020FFF75AFBDD20FFF757FB0020E4
:1024D000FFF754FBF320FFF751FB0020FFF74EFB03
:1024E000E320FFF753FB0520FFF748FB0020FFF731
:1024F00045FB0A20FFF742FB0020FFF73FFB1C20B3
:10250000FFF73CFB0020FFF739FB3320FFF736FBDA
:102510000020FFF733FB4420FFF730FB0020FFF7DC
:102520002DFB5020FFF72AFB0020FFF727FB62203E
:10253000FFF724FB0020FFF721FB7820FFF71EFBAD
:102540000020FFF71BFB8820FFF718FB0020FFF798
:1025500015FB9720FFF712FB0020FFF70FFBA620CB
:10256000FFF70CFB0020FFF709FBB720FFF706FB86
:102570000020FFF703FBC220FFF700FB0020FFF75E
:10258000FDFAC720FFF7FAFA0020FFF7F7FAD1208B
:10259000FFF7F4FA0020FFF7F1FAD520FFF7EEFA83
:1025A0000020FFF7EBFADD20FFF7E8FA0020FFF745
:1025B000E5FAF320FFF7E2FA0020FFF7DFFAE42064
:1025C000FFF7E4FA0120FFF7D9FA0020FFF7D6FA67
:1025D0000120FFF7D3FA0020FFF7D0FA0220FFF71F
:1025E000CDFA0020FFF7CAFA2A20FFF7C7FA002029
:1025F000FFF7C4FA3C20FFF7C1FA0020FFF7BEFA4C
:102600004B20FFF7BBFA0020FFF7B8FA5D20FFF779
:10261000B5FA0020FFF7B2FA7420FFF7AFFA0020F6
:10262000FFF7ACFA8420FFF7A9FA0020FFF7A6FA1B
:102630009320FFF7A3FA0020FFF7A0FAA220FFF7EC
:102640009DFA0020FFF79AFAB320FFF797FA0020CF
:10265000FFF794FABE20FFF791FA0020FFF78EFAF9
:10266000C420FFF78BFA0020FFF788FACD20FFF790
:1026700085FA0020FFF782FAD320FFF77FFA0020C7
:10268000FFF77CFADD20FFF779FA0020FFF776FAF2
:10269000F320FFF773FA0020FFF770FAE520FFF749
:1026A00075FA0020FFF76AFA0020FFF767FA0020AA
:1026B000FFF764FA0020FFF761FA0220FFF75EFAE5
:1026C0000020FFF75BFA2920FFF758FA0020FFF7F8
:1026D00055FA3C20FFF752FA0020FFF74FFA4B2043
:1026E000FFF74CFA0020FFF749FA5D20FFF746FAA2
:1026F0000020FFF743FA7420FFF740FA0020FFF7AD
:102700003DFA8420FFF73AFA0020FFF737FA9320CA
:10271000FFF734FA0020FFF731FAA220FFF72EFA74
:102720000020FFF72BFAB320FFF728FA0020FFF76D
:1027300025FABE20FFF722FA0020FFF71FFAC42077
:10274000FFF71CFA0020FFF719FACD20FFF716FA61
:102750000020FFF713FAD320FFF710FA0020FFF74D
:102760000DFADC20FFF70AFA0020FFF707FAF32042
:10277000FFF704FA0020FFF701FAE620FFF706FA58
:102780001120FFF7FBF90020FFF7F8F93420FFF7DD
:10279000F5F90020FFF7F2F95620FFF7EFF90020D6
:1027A000FFF7ECF97620FFF7E9F90020FFF7E6F9EB
:1027B0007720FFF7E3F90020FFF7E0F96620FFF745
:1027C000DDF90020FFF7DAF98820FFF7D7F90020BC
:1027D000FFF7D4F99920FFF7D1F90020FFF7CEF9E0
:1027E000BB20FFF7CBF90020FFF7C8F99920FFF7CE
:1027F000C5F90020FFF7C2F96620FFF7BFF90020F6
:10280000FFF7BCF95520FFF7B9F90020FFF7B6F93B
:102810005520FFF7B3F90020FFF7B0F94520FFF787
:10282000ADF90020FFF7AAF94320FFF7A7F9002030
:10283000FFF7A4F94420FFF7A1F90020FFF79EF964
:10284000E720FFF7A3F93220FFF798F90020FFF700
:1028500095F95520FFF792F90020FFF78FF97620C0
:10286000FFF78CF90020FFF789F96620FFF786F95A
:102870000020FFF783F96720FFF780F90020FFF7BA
:102880007DF96720FFF77AF90020FFF777F98720B5
:10289000FFF774F90020FFF771F99920FFF76EF93F
:1028A0000020FFF76BF9BB20FFF768F90020FFF766
:1028B00065F99920FFF762F90020FFF75FF97720AB
:1028C000FFF75CF90020FFF759F94420FFF756F9AC
:1028D0000020FFF753F95620FFF750F90020FFF7CB
:1028E0004DF92320FFF74AF90020FFF747F933207D
:1028F000FFF744F90020FFF741F94520FFF73EF9C3
:102900000020FFF73BF9E820FFF740F90020FFF730
:1029100035F90020FFF732F99920FFF72FF9002051
:10292000FFF72CF98720FFF729F90020FFF726F998
:102930008820FFF723F90020FFF720F97720FFF721
:102940001DF90020FFF71AF96620FFF717F900209C
:10295000FFF714F98820FFF711F90020FFF70EF9AF
:10296000AA20FFF70BF90020FFF708F9BB20FFF7BB
:1029700005F90020FFF702F99920FFF7FFF8002082
:10298000FFF7FCF86620FFF7F9F80020FFF7F6F8EC
:102990005520FFF7F3F80020FFF7F0F85520FFF778
:1029A000EDF80020FFF7EAF84420FFF7E7F80020F1
:1029B000FFF7E4F84420FFF7E1F80020FFF7DEF826
:1029C0005520FFF7DBF80020FFF7D8F8E920FFF7E4
:1029D000DDF8AA20FFF7D2F80020FFF7CFF800209B
:1029E000FFF7CCF80020FFF7C9F80020FFF7CEF87A
:1029F000AA20FFF7C3F8CF20FFF7C8F80020FFF7A1
:102A0000BDF80020FFF7BAF80020FFF7B7F8002064
:102A1000FFF7B4F80020FFF7B1F80020FFF7AEF899
:102A20000020FFF7ABF80020FFF7A8F80020FFF721
:102A3000A5F80020FFF7A2F80020FFF79FF800207C
:102A4000FFF79CF80020FFF799F80020FFF796F8B1
:102A50000020FFF793F80020FFF790F80020FFF721
:102A60008DF8F020FFF792F80020FFF787F850204C
:102A7000FFF784F80020FFF781F80020FFF77EF8C9
:102A80000020FFF77BF8F320FFF780F80020FFF726
:102A900075F8F920FFF77AF80620FFF76FF8102095
:102AA000FFF76CF82920FFF769F80020FFF766F8B8
:102AB0003A20FFF76BF85520FFF760F81120FFF779
:102AC00065F86420FEF72AFF2920FFF75FF835201C
:102AD000FFF75CF80020FFF751F85120FFF756F898
:102AE000FF20FFF74BF85320FFF750F82C20FFF79B
:102AF00045F85520FFF74AF88220FFF73FF810BD50
:102B000070B5044625460DB1294600E0012108466E
:102B100000F032FC002070BD10B500F05BFC00201E
:102B200010BD7FB504460D46606998B1A06988B1B3
:102B3000B4F90800FFF767F80646D4E90510CDE9B7
:102B4000006102902B462269D4E9001000F096FD46
:102B5000039013E0B4F90800FFF755F8064603A800
:102B6000CDE90060238A9AB22B46D4E9001000F028
:102B700053FD012802D0002004B070BD0398FBE78C
:102B80002DE9F04105460E461C4807681C480068C0
:102B9000001D00F0EDFA50B91948006890F82C10AB
:102BA0000120884017490968814316480160681C64
:102BB00038B936B112480168091D134800F022FBEC
:102BC0001AE07C190E4800684460BC4207D20C48E9
:102BD0000168091D0D48006800F0FAFA0CE0084889
:102BE0000168091D0A48006800F0F2FA0948006807
:102BF000844201D207480460BDE8F0813C00002017
:102C00002800002040000020680400203000002040
:102C10002C0000205800002010B5044600F0FEFAF9
:102C200023480068401C224908602248006840B9D7
:102C3000204804600846006801280DD100F03EF9E4
:102C40000AE01D48006838B91A480068C06AE16A9D
:102C5000884201D81748046018480068401C17498A
:102C6000086094F82C100120884015490968084331
:102C700013490860E16A01EB8101124A02EB81000D
:102C8000211D00F0BFFA00F0F3FA0B48006868B1AC
:102C900008480068C06AE16A884207D24FF0805055
:102CA00009490860BFF34F8FBFF36F8F10BD00005D
:102CB000380000202800002044000020540000209C
:102CC000400000208C03002004ED00E010B516E069
:102CD00000F0A4FA0C48C068C468201D00F048FA4F
:102CE0000A480068401E0949086009480068401EFB
:102CF0000749086000F0BCFA204600F00BF80448D1
:102D000000680028E4D110BD5404002038000020E1
:102D10003400002010B5044694F8510030B9206BFF
:102D200000F0C4FA204600F0C1FA1AE094F851000D
:102D3000012803D1204600F0B9FA12E094F85100BE
:102D4000022801D1012000E0002050B900BF50202E
:102D500080F31188BFF34F8FBFF36F8F00BF00BFA9
:102D6000FEE710BD30B54FF44063174800F007048C
:102D70002CB1C01D20F00700134C041B1B1B024686
:102D8000124C22600024114D6C60D018083820F0DD
:102D900007000F4C206000240D4D2D686C600C4D19
:102DA0002D682C601146441A4C60094C24680C6054
:102DB000084D4C682C60084D4C682C604FF0004466
:102DC000064D2C6030BD00007C0400206400002013
:102DD0006C000020740000207000002080000020A3
:102DE00000BFFFF773FF064800680128F9D94FF0CC
:102DF000805004490860BFF34F8FBFF36F8FF0E737
:102E00008C03002004ED00E02DE9FF5F81460E46B3
:102E10009246DDE90E7B109CAAF10100216B01EBCB
:102E2000800828F0070808F0070008B9012000E032
:102E3000002050B900BF502080F31188BFF34F8F9E
:102E4000BFF36F8F00BF00BFFEE786B1002507E02C
:102E5000715D04F134004155705D00B902E06D1CF4
:102E6000102DF5D300BF00214320015502E00020C2
:102E700084F83400072F00D30627E7626764002038
:102E8000A064201D00F0A1F904F1180000F09DF9E4
:102E90002461C7F10700A06164620020E06484F847
:102EA000500049464046039A00F050F92060BBF1BB
:102EB000000F01D0CBF80040BDE8FF9F10B5002403
:102EC00007E004EB84010F4A02EB810000F070F987
:102ED000641C072CF5D30C4800F06AF90B4800F08D
:102EE00067F90B4800F064F90A4800F061F90A48F4
:102EF00000F05EF904480949086004480849086080
:102F000010BD00008C030020180400202C040020B9
:102F10004004002054040020680400202C000020FD
:102F20003000002010B50146164800E00068036834
:102F30008B42FBD30246436813448B4204D143685F
:102F40004C682344436001460A464B6813440468B6
:102F5000A34211D10C4C03682468A34208D04B68EB
:102F60000468646823444B6003681B680B6005E0D9
:102F7000054B1B680B6001E003680B60884200D0C2
:102F8000016010BD640000206C0000200A4909683F
:102F9000096809B9012100E0002121B14FF0FF319A
:102FA000064A116006E004490968C968C868034A0E
:102FB00041681160704700002C000020580000207C
:102FC0000E480068401C08B9012000E0002050B9FC
:102FD00000BF502080F31188BFF34F8FBFF36F8F76
:102FE00000BF00BFFEE700BF502080F31188BFF391
:102FF0004F8FBFF36F8F00BF00BFFEE7840000203C
:103000002DE9F04104464FF0000800F03BFA494832
:10301000006808B9FFF7A6FE47480068204000286E
:1030200070D1D4B1083404F00700B0B104F0070047
:10303000C0F10800044404F0070008B9012000E0D2
:10304000002050B900BF502080F31188BFF34F8F8C
:10305000BFF36F8F00BF00BFFEE7002C52D0374890
:10306000006884424ED8364E3046056801E02E4650
:103070002D686868A04202D228680028F7D12D4840
:10308000006885423ED0306800F10808286830604A
:103090006868001B102819D92F1907F0070008B914
:1030A000012000E0002050B900BF502080F31188BB
:1030B000BFF34F8FBFF36F8F00BF00BFFEE768689D
:1030C000001B78606C603846FFF72CFF1B4968686E
:1030D0000968081A1949086008460068194909680A
:1030E000884203D21548006816490860124968688A
:1030F0000968084368600020286013480068401C85
:103100001149086000F0BCFB08F0070008B9012075
:1031100000E0002050B900BF502080F31188BFF3B9
:103120004F8FBFF36F8F00BF00BFFEE74046BDE883
:10313000F08100006C000020800000207000002062
:10314000640000207400002078000020001F4FF071
:1031500080730360001F21F001030360001F034B15
:10316000036014380260203870470000C12F000847
:1031700001460A69D1E901309860D1E9010358603C
:103180005068884201D1886850600020086110684A
:10319000401E106010687047034B0360034B0B60C8
:1031A0008023136070470000A8000020FC0000206E
:1031B00000F1080141604FF0FF31816000F108012A
:1031C000C160016100210160704700210161704709
:1031D00010B502460B685C1C0CB9106907E002F1DF
:1031E000080000E04068446824689C42FAD94468BA
:1031F0004C604C68A160886041600A611468641C7E
:10320000146010BD42684A6093688B60936859608F
:103210009160086103685B1C0360704700BF502029
:1032200080F31188BFF34F8FBFF36F8F00BF0E483D
:103230000068401C0C49086008460068012812D14B
:103240000A480068C0B208B9012000E0002050B967
:1032500000BF502080F31188BFF34F8FBFF36F8FF3
:1032600000BF00BFFEE770478400002004ED00E0CF
:103270000D48006850B900BF502080F31188BFF39B
:103280004F8FBFF36F8F00BF00BFFEE70648006897
:10329000401E054908600846006820B9002080F3F8
:1032A000118800BF00BF70478400002070B506463B
:1032B0003546002E44D0083D2C46224960680968F6
:1032C000084008B1012000E0002050B900BF5020A4
:1032D00080F31188BFF34F8FBFF36F8F00BF00BF24
:1032E000FEE7206808B9012000E0002050B900BFC7
:1032F000502080F31188BFF34F8FBFF36F8F00BF53
:1033000000BFFEE70F49606809680840C0B1206847
:10331000B0B90C49606809688843606000F0B2F891
:103320000949606809680844074908602046FFF7B2
:10333000F9FD06480068401C0449086000F0A0FA46
:1033400070BD000080000020700000207C00002084
:1033500000204FF0E02108618861064800684FF4C2
:103360007A71B0FBF1F0401E4FF0E0214861072078
:10337000086170472400002070B504460025D4B1D0
:103380001248006808B9012000E0002050B900BFD1
:10339000502080F31188BFF34F8FBFF36F8F00BFB2
:1033A00000BFFEE700F06EF800212046FFF7E8FBC3
:1033B00000F066FA05463DB94FF0805004490860B8
:1033C000BFF34F8FBFF36F8F70BD00006000002010
:1033D00004ED00E010B586B000200590049003AA2B
:1033E00004A905A8FFF7D8FE0022DDE90410134662
:1033F000CDE9002102901CA11D48039A00F03EF97E
:103400001C4908600846006808B1012400E0002457
:10341000012C15D100BF502080F31188BFF34F8FCE
:10342000BFF36F8F00BF4FF0FF30134908600120DA
:103430001249086000201249086000F071F810E09D
:10344000601C08B1012000E0002050B900BF5020EE
:1034500080F31188BFF34F8FBFF36F8F00BF00BFA2
:10346000FEE706B010BD000049444C4500000000D6
:10347000E12D00085C0000205800002044000020DE
:103480003C00002002480068401C01490860704769
:10349000600000201D48006818B101201C49086028
:1034A00032E000201A4908601A480068B0FA80F03B
:1034B000C0F11F0101EB8100174A52F8200008B14A
:1034C000012000E0002050B900BF502080F3118897
:1034D000BFF34F8FBFF36F8F00BF00BFFEE701EB5D
:1034E00081020D4B03EB820042685268426000F19A
:1034F00008024368934202D14268526842604268BF
:10350000D268064B1A6000BF7047000060000020C0
:103510004C000020400000208C03002028000020E8
:103520001CB53849084600780190FF200A46107003
:103530000846007800909DF8000000F0F0009DF82B
:103540000020904201D1012000E0002050B900BFCE
:10355000502080F31188BFF34F8FBFF36F8F00BFF0
:1035600000BFFEE79DF8000000F05000264A1070F2
:103570000720264A106009E024480068401E234ABC
:1035800010609DF800004006000E00909DF80000BD
:1035900000F080008028EFD01C480068C0F10700D0
:1035A000042801D1012000E0002050B900BF5020C4
:1035B00080F31188BFF34F8FBFF36F8F00BF00BF41
:1035C000FEE7124800680002104A106010460088AA
:1035D00000F4E06010600B4A019810700C4800681D
:1035E00040F470000A4908600846006840F07040E6
:1035F0000860FFF7ADFE002006490860FCF7F8FD03
:1036000000201CBD00E400E0880000208C000020A9
:1036100020ED00E0840000202DE9FF4F85B08046BA
:1036200089461746DDE912ABB800FFF7E9FC06460C
:1036300056B15420FFF7E4FC04460CB1266304E0C5
:103640003046FFF733FE00E000248CB1002084F800
:103650005100CDE900ABCDE902403A46494640462B
:10366000089BFFF7D1FB2046FFF7D6FA012501E0C2
:103670004FF0FF35284609B0BDE8F08F2DE9F04F37
:1036800085B00746884691469A46DDE90EB6109CFD
:103690000EB1012000E0002050B900BF502080F39F
:1036A0001188BFF34F8FBFF36F8F00BF00BFFEE7DE
:1036B0000CB1012000E0002050B900BF502080F381
:1036C0001188BFF34F8FBFF36F8F00BF00BFFEE7BE
:1036D000542003900398542801D1012000E00020D9
:1036E00050B900BF502080F31188BFF34F8FBFF354
:1036F0006F8F00BF00BFFEE700BFB4B1AEB125467B
:103700002C462E63022085F85100002004A9534660
:103710004A46CDE900B1CDE9025041463846FFF7AF
:1037200073FB2846FFF778FA01E000200490049824
:1037300005B0BDE8F08F00002DE9F0414FF0000822
:103740004448006800287CD143480068451C424832
:10375000056015BB41480068006808B9012000E019
:10376000002050B900BF502080F31188BFF34F8F65
:10377000BFF36F8F00BF00BFFEE7384807683848C7
:103780000068364908603648076036480068401CC3
:1037900034490860FFF7FAFB00BF334800688542F0
:1037A0003CD300BF2D480068006808B9012000E044
:1037B000002020B14FF0FF302B4908602DE0274852
:1037C0000068C068C4686668B54202D226480660D0
:1037D00023E0201DFFF7CCFCA06A18B104F118000B
:1037E000FFF7C6FC94F82C10012088401F49096897
:1037F00008431E490860E16A01EB81011C4A02EBA3
:103800008100211DFFF7FEFC1A49E06A0968C96AB8
:103810008842C7D34FF00108C4E700BF15480068CD
:10382000C06A00EB8000124951F82000012801D93C
:103830004FF001081048006808B14FF0010805E09A
:10384000FFE70E480068401C0C4908604046BDE890
:10385000F0810000600000203C0000202C000020CF
:1038600030000020500000205800002040000020C0
:103870008C030020280000204C000020480000207D
:1038800070B5002400263648006850B900BF5020AB
:1038900080F31188BFF34F8FBFF36F8F00BF00BF5E
:1038A000FEE7FFF7BBFC2E480068401E2C4908606D
:1038B0000846006800284FD12A48006800284BD0ED
:1038C00024E02948C068C46804F11800FFF750FCE0
:1038D000201DFFF74DFC94F82C100120884023494F
:1038E0000968084321490860E16A01EB8101204A27
:1038F00002EB8100211DFFF785FC1E49E06A096883
:10390000C96A884202D301201B4908601648006832
:1039100008B9012000E000200028D2D00CB1FFF748
:1039200035FB1648056865B100BFFFF705FF10B10C
:103930000120114908606D1E002DF6D100200F49AD
:1039400008600D48006838B1012630070C4908604E
:10395000BFF34F8FBFF36F8FFFF78AFC304670BD08
:1039600060000020380000204004002040000020BB
:103970008C030020280000204C000020480000207C
:1039800004ED00E0E83900083517000800000000E9
:1039900000000000800000000000000000000000A7
:1039A000F439000899180008FDFF0000000000002D
:1039B0008000000000000000000000000203040579
:1039C000060708090A0B0C0D0E0F1010010200006B
:1039D00000000000000001020304060708090000BF
:1039E00000000102030400004C45445F5441534B66
:1039F0000000000055495F5461736B001C3A0008D9
:103A000000000020A80000006C010008C43A000873
:103A1000A8000020381600008801000800000000FF
:103A20000000000000000000000000000000000096
:103A30000000000000000000100000000100000075
:103A400000127A00000000000000000000000000EA
:103A50000000000000000000000000000000000066
:103A60000000000000000000000000000000000056
:103A70000000000000000000000000000000000046
:103A80000000000000000000000000000000000036
:103A90000000000000000000000000000000000026
:103AA000AAAAAAAA0000000000000000000000006E
:103AB000000000004001E001105300002C002A002B
:043AC0002B000000D7
:0400000508000131BD
:00000001FF
